{
    "contractName": "Counter",
    "abi": [
        {
            "inputs": [],
            "name": "increment",
            "outputs": [],
            "stateMutability": "nonpayable",
            "type": "function"
        },
        {
            "inputs": [],
            "name": "number",
            "outputs": [
                {
                    "internalType": "uint256",
                    "name": "",
                    "type": "uint256"
                }
            ],
            "stateMutability": "view",
            "type": "function"
        },
        {
            "inputs": [
                {
                    "internalType": "uint256",
                    "name": "newNumber",
                    "type": "uint256"
                }
            ],
            "name": "setNumber",
            "outputs": [],
            "stateMutability": "nonpayable",
            "type": "function"
        }
    ],
    "bytecode": "608060405234801561001057600080fd5b5060f78061001f6000396000f3fe6080604052348015600f57600080fd5b5060043610603c5760003560e01c80633fb5c1cb1460415780638381f58a146053578063d09de08a14606d575b600080fd5b6051604c3660046083565b600055565b005b605b60005481565b60405190815260200160405180910390f35b6051600080549080607c83609b565b9190505550565b600060208284031215609457600080fd5b5035919050565b60006001820160ba57634e487b7160e01b600052601160045260246000fd5b506001019056fea264697066735822122085ce4712aa26b0f1b6b5064bbb99dc8a1b5cfc946e7f9c9d8a80da98024f600164736f6c63430008130033",
    "sourcePath": "/Users/amaku/Desktop/nftHODLR/src/Counter.sol",
    "compiler": {
        "name": "solc",
        "version": "0.8.19+commit.7dd6d404"
    },
    "functionHashes": {
        "increment()": "d09de08a",
        "number()": "8381f58a",
        "setNumber(uint256)": "3fb5c1cb"
    },
    "gasEstimates": {
        "creation": {
            "codeDepositCost": "49400",
            "executionCost": "99",
            "totalCost": "49499"
        },
        "external": {
            "increment()": "24440",
            "number()": "2283",
            "setNumber(uint256)": "22290"
        }
    }
}