{
    "contractName": "ERC6551Registry",
    "abi": [
        {
            "inputs": [],
            "name": "InitializationFailed",
            "type": "error"
        },
        {
            "anonymous": false,
            "inputs": [
                {
                    "indexed": false,
                    "internalType": "address",
                    "name": "account",
                    "type": "address"
                },
                {
                    "indexed": false,
                    "internalType": "address",
                    "name": "implementation",
                    "type": "address"
                },
                {
                    "indexed": false,
                    "internalType": "uint256",
                    "name": "chainId",
                    "type": "uint256"
                },
                {
                    "indexed": false,
                    "internalType": "address",
                    "name": "tokenContract",
                    "type": "address"
                },
                {
                    "indexed": false,
                    "internalType": "uint256",
                    "name": "tokenId",
                    "type": "uint256"
                },
                {
                    "indexed": false,
                    "internalType": "uint256",
                    "name": "salt",
                    "type": "uint256"
                }
            ],
            "name": "AccountCreated",
            "type": "event"
        },
        {
            "inputs": [
                {
                    "internalType": "address",
                    "name": "implementation",
                    "type": "address"
                },
                {
                    "internalType": "uint256",
                    "name": "chainId",
                    "type": "uint256"
                },
                {
                    "internalType": "address",
                    "name": "tokenContract",
                    "type": "address"
                },
                {
                    "internalType": "uint256",
                    "name": "tokenId",
                    "type": "uint256"
                },
                {
                    "internalType": "uint256",
                    "name": "salt",
                    "type": "uint256"
                }
            ],
            "name": "account",
            "outputs": [
                {
                    "internalType": "address",
                    "name": "",
                    "type": "address"
                }
            ],
            "stateMutability": "view",
            "type": "function"
        },
        {
            "inputs": [
                {
                    "internalType": "address",
                    "name": "implementation",
                    "type": "address"
                },
                {
                    "internalType": "uint256",
                    "name": "chainId",
                    "type": "uint256"
                },
                {
                    "internalType": "address",
                    "name": "tokenContract",
                    "type": "address"
                },
                {
                    "internalType": "uint256",
                    "name": "tokenId",
                    "type": "uint256"
                },
                {
                    "internalType": "uint256",
                    "name": "salt",
                    "type": "uint256"
                },
                {
                    "internalType": "bytes",
                    "name": "initData",
                    "type": "bytes"
                }
            ],
            "name": "createAccount",
            "outputs": [
                {
                    "internalType": "address",
                    "name": "",
                    "type": "address"
                }
            ],
            "stateMutability": "nonpayable",
            "type": "function"
        },
        {
            "inputs": [
                {
                    "internalType": "address",
                    "name": "implementation",
                    "type": "address"
                },
                {
                    "internalType": "uint256",
                    "name": "chainId",
                    "type": "uint256"
                },
                {
                    "internalType": "address",
                    "name": "tokenContract",
                    "type": "address"
                },
                {
                    "internalType": "uint256",
                    "name": "tokenId",
                    "type": "uint256"
                },
                {
                    "internalType": "uint256",
                    "name": "salt",
                    "type": "uint256"
                }
            ],
            "name": "getCode",
            "outputs": [
                {
                    "internalType": "bytes",
                    "name": "",
                    "type": "bytes"
                }
            ],
            "stateMutability": "pure",
            "type": "function"
        },
        {
            "inputs": [
                {
                    "internalType": "address",
                    "name": "implementation",
                    "type": "address"
                },
                {
                    "internalType": "uint256",
                    "name": "chainId",
                    "type": "uint256"
                },
                {
                    "internalType": "address",
                    "name": "tokenContract",
                    "type": "address"
                },
                {
                    "internalType": "uint256",
                    "name": "tokenId",
                    "type": "uint256"
                },
                {
                    "internalType": "uint256",
                    "name": "salt",
                    "type": "uint256"
                }
            ],
            "name": "test",
            "outputs": [
                {
                    "internalType": "address",
                    "name": "",
                    "type": "address"
                },
                {
                    "internalType": "uint256",
                    "name": "",
                    "type": "uint256"
                },
                {
                    "internalType": "address",
                    "name": "",
                    "type": "address"
                },
                {
                    "internalType": "uint256",
                    "name": "",
                    "type": "uint256"
                },
                {
                    "internalType": "uint256",
                    "name": "",
                    "type": "uint256"
                }
            ],
            "stateMutability": "pure",
            "type": "function"
        }
    ],
    "bytecode": "608060405234801561001057600080fd5b50610663806100206000396000f3fe608060405234801561001057600080fd5b506004361061004c5760003560e01c80632585f6e51461005157806349273757146100a85780635e9bc536146100c8578063da7323b3146100f3575b600080fd5b61006a61005f366004610458565b939492939192909190565b604080516001600160a01b039687168152602081019590955292909416918301919091526060820152608081019190915260a0015b60405180910390f35b6100bb6100b6366004610458565b610106565b60405161009f91906104ca565b6100db6100d6366004610458565b610122565b6040516001600160a01b03909116815260200161009f565b6100db6101013660046104fd565b610146565b60606000610117878787878761028c565b979650505050505050565b600080610132878787878761028c565b8051602090910120905061011783826102f5565b600080610156898989898961028c565b9050600061016e8660001b83805190602001206102f5565b90506001600160a01b0381163b156101895791506101179050565b604080516001600160a01b0383811682528c811660208301528183018c90528a1660608201526080810189905260a0810188905290517f07fba7bba1191da7ee1155dcfa0030701c9c9a9cc34a93b991fc6fd0c9268d8f9181900360c00190a16101f560008784610309565b9050831561027f576000816001600160a01b031686866040516102199291906105ae565b6000604051808303816000865af19150503d8060008114610256576040519150601f19603f3d011682016040523d82523d6000602084013e61025b565b606091505b505090508061027d57604051630337323560e31b815260040160405180910390fd5b505b9998505050505050505050565b60408051602081018390529081018590526001600160a01b0384166060828101919091526080820184905290869060a00160408051601f19818403018152908290526102db92916020016105be565b604051602081830303815290604052905095945050505050565b6000610302838330610412565b9392505050565b6000834710156103605760405162461bcd60e51b815260206004820152601d60248201527f437265617465323a20696e73756666696369656e742062616c616e636500000060448201526064015b60405180910390fd5b81516000036103b15760405162461bcd60e51b815260206004820181905260248201527f437265617465323a2062797465636f6465206c656e677468206973207a65726f6044820152606401610357565b8282516020840186f590506001600160a01b0381166103025760405162461bcd60e51b815260206004820152601960248201527f437265617465323a204661696c6564206f6e206465706c6f79000000000000006044820152606401610357565b6000604051836040820152846020820152828152600b8101905060ff815360559020949350505050565b80356001600160a01b038116811461045357600080fd5b919050565b600080600080600060a0868803121561047057600080fd5b6104798661043c565b94506020860135935061048e6040870161043c565b94979396509394606081013594506080013592915050565b60005b838110156104c15781810151838201526020016104a9565b50506000910152565b60208152600082518060208401526104e98160408501602087016104a6565b601f01601f19169190910160400192915050565b600080600080600080600060c0888a03121561051857600080fd5b6105218861043c565b9650602088013595506105366040890161043c565b9450606088013593506080880135925060a088013567ffffffffffffffff8082111561056157600080fd5b818a0191508a601f83011261057557600080fd5b81358181111561058457600080fd5b8b602082850101111561059657600080fd5b60208301945080935050505092959891949750929550565b8183823760009101908152919050565b733d60ad80600a3d3981f3363d3d373d3d3d363d7360601b8152606083901b6bffffffffffffffffffffffff191660148201526e5af43d82803e903d91602b57fd5bf360881b6028820152815160009061061f8160378501602087016104a6565b91909101603701939250505056fea26469706673582212206dc07649787c4216b5dfc305b91a8cbb488c2261aec4becbed0616548e99bffa64736f6c63430008130033",
    "sourcePath": "/Users/amaku/Desktop/nftHODLR/src/registry.sol",
    "compiler": {
        "name": "solc",
        "version": "0.8.19+commit.7dd6d404"
    },
    "functionHashes": {
        "account(address,uint256,address,uint256,uint256)": "5e9bc536",
        "createAccount(address,uint256,address,uint256,uint256,bytes)": "da7323b3",
        "getCode(address,uint256,address,uint256,uint256)": "49273757",
        "test(address,uint256,address,uint256,uint256)": "2585f6e5"
    },
    "gasEstimates": {
        "creation": {
            "codeDepositCost": "327000",
            "executionCost": "368",
            "totalCost": "327368"
        },
        "external": {
            "account(address,uint256,address,uint256,uint256)": "infinite",
            "createAccount(address,uint256,address,uint256,uint256,bytes)": "infinite",
            "getCode(address,uint256,address,uint256,uint256)": "infinite",
            "test(address,uint256,address,uint256,uint256)": "infinite"
        }
    }
}