{
    "contractName": "ImpTheGoat",
    "abi": [
        {
            "inputs": [
                {
                    "internalType": "string",
                    "name": "_collectionURI",
                    "type": "string"
                },
                {
                    "internalType": "string",
                    "name": "_tokenURI",
                    "type": "string"
                },
                {
                    "internalType": "address",
                    "name": "_ERC6551Registry",
                    "type": "address"
                },
                {
                    "internalType": "address",
                    "name": "_ERC6551AccountImplementation",
                    "type": "address"
                }
            ],
            "stateMutability": "nonpayable",
            "type": "constructor"
        },
        {
            "anonymous": false,
            "inputs": [
                {
                    "indexed": true,
                    "internalType": "uint256",
                    "name": "badgeId",
                    "type": "uint256"
                },
                {
                    "indexed": true,
                    "internalType": "address",
                    "name": "nftAddress",
                    "type": "address"
                },
                {
                    "indexed": true,
                    "internalType": "uint256",
                    "name": "nftTokenId",
                    "type": "uint256"
                }
            ],
            "name": "Mint",
            "type": "event"
        },
        {
            "anonymous": false,
            "inputs": [
                {
                    "indexed": true,
                    "internalType": "address",
                    "name": "previousOwner",
                    "type": "address"
                },
                {
                    "indexed": true,
                    "internalType": "address",
                    "name": "newOwner",
                    "type": "address"
                }
            ],
            "name": "OwnershipTransferred",
            "type": "event"
        },
        {
            "anonymous": false,
            "inputs": [
                {
                    "indexed": true,
                    "internalType": "address",
                    "name": "soul",
                    "type": "address"
                },
                {
                    "indexed": true,
                    "internalType": "address",
                    "name": "account",
                    "type": "address"
                },
                {
                    "indexed": true,
                    "internalType": "uint256",
                    "name": "tokenId",
                    "type": "uint256"
                }
            ],
            "name": "TokenAccountCreatedForSoul",
            "type": "event"
        },
        {
            "inputs": [],
            "name": "ERC6551AccountImplementation",
            "outputs": [
                {
                    "internalType": "address",
                    "name": "",
                    "type": "address"
                }
            ],
            "stateMutability": "view",
            "type": "function"
        },
        {
            "inputs": [],
            "name": "ERC6551Registry",
            "outputs": [
                {
                    "internalType": "contract IERC6551Registry",
                    "name": "",
                    "type": "address"
                }
            ],
            "stateMutability": "view",
            "type": "function"
        },
        {
            "inputs": [],
            "name": "collectionInfo",
            "outputs": [
                {
                    "internalType": "string",
                    "name": "",
                    "type": "string"
                }
            ],
            "stateMutability": "view",
            "type": "function"
        },
        {
            "inputs": [],
            "name": "collectionUri",
            "outputs": [
                {
                    "internalType": "string",
                    "name": "",
                    "type": "string"
                }
            ],
            "stateMutability": "pure",
            "type": "function"
        },
        {
            "inputs": [],
            "name": "metadataFormat",
            "outputs": [
                {
                    "internalType": "string",
                    "name": "",
                    "type": "string"
                }
            ],
            "stateMutability": "pure",
            "type": "function"
        },
        {
            "inputs": [],
            "name": "owner",
            "outputs": [
                {
                    "internalType": "address",
                    "name": "",
                    "type": "address"
                }
            ],
            "stateMutability": "view",
            "type": "function"
        },
        {
            "inputs": [
                {
                    "internalType": "uint256",
                    "name": "tokenId",
                    "type": "uint256"
                }
            ],
            "name": "ownerOf",
            "outputs": [
                {
                    "internalType": "address",
                    "name": "",
                    "type": "address"
                },
                {
                    "internalType": "uint256",
                    "name": "",
                    "type": "uint256"
                }
            ],
            "stateMutability": "view",
            "type": "function"
        },
        {
            "inputs": [],
            "name": "renounceOwnership",
            "outputs": [],
            "stateMutability": "nonpayable",
            "type": "function"
        },
        {
            "inputs": [],
            "name": "safeMint",
            "outputs": [],
            "stateMutability": "nonpayable",
            "type": "function"
        },
        {
            "inputs": [
                {
                    "internalType": "uint256",
                    "name": "_tokenId",
                    "type": "uint256"
                }
            ],
            "name": "showTokenAccount",
            "outputs": [
                {
                    "internalType": "address",
                    "name": "",
                    "type": "address"
                }
            ],
            "stateMutability": "view",
            "type": "function"
        },
        {
            "inputs": [
                {
                    "internalType": "address",
                    "name": "",
                    "type": "address"
                }
            ],
            "name": "soulToTokens",
            "outputs": [
                {
                    "internalType": "uint256",
                    "name": "",
                    "type": "uint256"
                }
            ],
            "stateMutability": "view",
            "type": "function"
        },
        {
            "inputs": [],
            "name": "tokenInfo",
            "outputs": [
                {
                    "internalType": "string",
                    "name": "",
                    "type": "string"
                }
            ],
            "stateMutability": "view",
            "type": "function"
        },
        {
            "inputs": [
                {
                    "internalType": "uint256",
                    "name": "",
                    "type": "uint256"
                }
            ],
            "name": "tokenToAddresses",
            "outputs": [
                {
                    "internalType": "address",
                    "name": "",
                    "type": "address"
                }
            ],
            "stateMutability": "view",
            "type": "function"
        },
        {
            "inputs": [
                {
                    "internalType": "uint256",
                    "name": "tokenId",
                    "type": "uint256"
                }
            ],
            "name": "tokenUri",
            "outputs": [
                {
                    "internalType": "string",
                    "name": "",
                    "type": "string"
                }
            ],
            "stateMutability": "view",
            "type": "function"
        },
        {
            "inputs": [
                {
                    "internalType": "address",
                    "name": "newOwner",
                    "type": "address"
                }
            ],
            "name": "transferOwnership",
            "outputs": [],
            "stateMutability": "nonpayable",
            "type": "function"
        }
    ],
    "bytecode": "60806040523480156200001157600080fd5b5060405162001198380380620011988339810160408190526200003491620001c4565b6200003f3362000092565b60036200004d8582620002e2565b5060046200005c8482620002e2565b50600680546001600160a01b039384166001600160a01b0319918216179091556007805492909316911617905550620003ae9050565b600080546001600160a01b038381166001600160a01b0319831681178455604051919092169283917f8be0079c531659141344cd1fd0a4f28419497f9722a3daafe3b4186f6b6457e09190a35050565b634e487b7160e01b600052604160045260246000fd5b600082601f8301126200010a57600080fd5b81516001600160401b0380821115620001275762000127620000e2565b604051601f8301601f19908116603f01168101908282118183101715620001525762000152620000e2565b816040528381526020925086838588010111156200016f57600080fd5b600091505b8382101562000193578582018301518183018401529082019062000174565b600093810190920192909252949350505050565b80516001600160a01b0381168114620001bf57600080fd5b919050565b60008060008060808587031215620001db57600080fd5b84516001600160401b0380821115620001f357600080fd5b6200020188838901620000f8565b955060208701519150808211156200021857600080fd5b506200022787828801620000f8565b9350506200023860408601620001a7565b91506200024860608601620001a7565b905092959194509250565b600181811c908216806200026857607f821691505b6020821081036200028957634e487b7160e01b600052602260045260246000fd5b50919050565b601f821115620002dd57600081815260208120601f850160051c81016020861015620002b85750805b601f850160051c820191505b81811015620002d957828155600101620002c4565b5050505b505050565b81516001600160401b03811115620002fe57620002fe620000e2565b62000316816200030f845462000253565b846200028f565b602080601f8311600181146200034e5760008415620003355750858301515b600019600386901b1c1916600185901b178555620002d9565b600085815260208120601f198616915b828110156200037f578886015182559484019460019091019084016200035e565b50858210156200039e5787850151600019600388901b60f8161c191681555b5050505050600190811b01905550565b610dda80620003be6000396000f3fe608060405234801561001057600080fd5b50600436106100f55760003560e01c80638da5cb5b11610097578063f2fde38b11610066578063f2fde38b1461021e578063f45782cd14610231578063f8e4833b1461025a578063fdd173b41461026d57600080fd5b80638da5cb5b146101c8578063a463a67a146101d9578063adbcef11146101e1578063defcd4b3146101f457600080fd5b80636352211e116100d35780636352211e1461017c5780636871ee40146101ae5780636addb663146101b8578063715018a6146101c057600080fd5b80631675f455146100fa5780632cecaac71461012357806335bdd8671461014e575b600080fd5b61010d610108366004610956565b610275565b60405161011a91906109bf565b60405180910390f35b600754610136906001600160a01b031681565b6040516001600160a01b03909116815260200161011a565b61016e61015c3660046109ee565b60026020526000908152604090205481565b60405190815260200161011a565b61018f61018a366004610956565b6102d4565b604080516001600160a01b03909316835260208301919091520161011a565b6101b66102e9565b005b61010d61037e565b6101b661040c565b6000546001600160a01b0316610136565b61010d610420565b600654610136906001600160a01b031681565b60408051808201909152600e81526d636f6c6c656374696f6e496e666f60901b602082015261010d565b6101b661022c3660046109ee565b610443565b61013661023f366004610956565b6001602052600090815260409020546001600160a01b031681565b610136610268366004610956565b6104b9565b61010d610548565b606060006004805461028690610a0b565b9050116102a257604051806020016040528060008152506102ce565b60046102ad83610555565b6040516020016102be929190610a61565b6040516020818303038152906040525b92915050565b6000806102e0836105e8565b91509150915091565b6102f161066a565b6102ff600580546001019055565b600061030a60055490565b9050610315816106c4565b61031f8133610724565b61037b5760405162461bcd60e51b815260206004820152602260248201527f4661696c656420546f20437265617465204163636f756e7420466f7220546f6b60448201526132b760f11b60648201526084015b60405180910390fd5b50565b6004805461038b90610a0b565b80601f01602080910402602001604051908101604052809291908181526020018280546103b790610a0b565b80156104045780601f106103d957610100808354040283529160200191610404565b820191906000526020600020905b8154815290600101906020018083116103e757829003601f168201915b505050505081565b61041461066a565b61041e600061082e565b565b60606040518061024001604052806102098152602001610b9c6102099139905090565b61044b61066a565b6001600160a01b0381166104b05760405162461bcd60e51b815260206004820152602660248201527f4f776e61626c653a206e6577206f776e657220697320746865207a65726f206160448201526564647265737360d01b6064820152608401610372565b61037b8161082e565b600654600754604051632f4de29b60e11b81526001600160a01b03918216600482015246602482015230604482015260648101849052600060848201819052929190911690635e9bc5369060a401602060405180830381865afa158015610524573d6000803e3d6000fd5b505050506040513d601f19601f820116820180604052508101906102ce9190610b1f565b6003805461038b90610a0b565b606060006105628361087e565b600101905060008167ffffffffffffffff81111561058257610582610b3c565b6040519080825280601f01601f1916602001820160405280156105ac576020820181803683370190505b5090508181016020015b600019016f181899199a1a9b1b9c1cb0b131b232b360811b600a86061a8153600a85049450846105b657509392505050565b60008181526001602052604081205481906001600160a01b0316806106645760405162461bcd60e51b815260206004820152602c60248201527f45524335313134536f756c42616467653a20536f756c20746f6b656e206f776e60448201526b195c881b9bdd08199bdd5b9960a21b6064820152608401610372565b93915050565b6000546001600160a01b0316331461041e5760405162461bcd60e51b815260206004820181905260248201527f4f776e61626c653a2063616c6c6572206973206e6f7420746865206f776e65726044820152606401610372565b336000818152600260209081526040808320859055848352600190915280822080546001600160a01b03191690931790925590518291309183917f4e3883c75cc9c752bb1db2e406a822e4a75067ae77ad9a0a4d179f2709b9e1f691a450565b600654600754604080513360248083019190915282518083039091018152604490910182526020810180516001600160e01b031663204a7f0760e21b179052905163da7323b360e01b815260009384936001600160a01b039182169363da7323b39361079e9390921691469130918b918991600401610b52565b6020604051808303816000875af11580156107bd573d6000803e3d6000fd5b505050506040513d601f19601f820116820180604052508101906107e19190610b1f565b905083816001600160a01b0316846001600160a01b03167f0bfcd9f5b6f495fc139dff528085a1e5970adeaa7103e391089842e830394b2c60405160405180910390a45060019392505050565b600080546001600160a01b038381166001600160a01b0319831681178455604051919092169283917f8be0079c531659141344cd1fd0a4f28419497f9722a3daafe3b4186f6b6457e09190a35050565b60008072184f03e93ff9f4daa797ed6e38ed64bf6a1f0160401b83106108bd5772184f03e93ff9f4daa797ed6e38ed64bf6a1f0160401b830492506040015b6d04ee2d6d415b85acef810000000083106108e9576d04ee2d6d415b85acef8100000000830492506020015b662386f26fc10000831061090757662386f26fc10000830492506010015b6305f5e100831061091f576305f5e100830492506008015b612710831061093357612710830492506004015b60648310610945576064830492506002015b600a83106102ce5760010192915050565b60006020828403121561096857600080fd5b5035919050565b60005b8381101561098a578181015183820152602001610972565b50506000910152565b600081518084526109ab81602086016020860161096f565b601f01601f19169290920160200192915050565b6020815260006109d26020830184610993565b9392505050565b6001600160a01b038116811461037b57600080fd5b600060208284031215610a0057600080fd5b81356109d2816109d9565b600181811c90821680610a1f57607f821691505b602082108103610a3f57634e487b7160e01b600052602260045260246000fd5b50919050565b60008151610a5781856020860161096f565b9290920192915050565b600080845481600182811c915080831680610a7d57607f831692505b60208084108203610a9c57634e487b7160e01b86526022600452602486fd5b818015610ab05760018114610ac557610af2565b60ff1986168952841515850289019650610af2565b60008b81526020902060005b86811015610aea5781548b820152908501908301610ad1565b505084890196505b505050505050610b16610b058286610a45565b64173539b7b760d91b815260050190565b95945050505050565b600060208284031215610b3157600080fd5b81516109d2816109d9565b634e487b7160e01b600052604160045260246000fd5b600060018060a01b03808916835287602084015280871660408401525084606083015283608083015260c060a0830152610b8f60c0830184610993565b9897505050505050505056fe7b227469746c65223a20224173736574204d65746164617461222c2274797065223a20226f626a656374222c2270726f70657274696573223a207b226e616d65223a207b2274797065223a2022737472696e67222c226465736372697074696f6e223a20224964656e7469666965732074686520617373657420746f2077686963682074686973204e465420726570726573656e7473227d2c226465736372697074696f6e223a207b2274797065223a2022737472696e67222c226465736372697074696f6e223a20224465736372696265732074686520617373657420746f2077686963682074686973204e465420726570726573656e7473227d2c22696d616765223a207b2274797065223a2022737472696e67222c226465736372697074696f6e223a2022412055524920706f696e74696e6720746f2061207265736f757263652077697468206d696d65207479706520696d6167652f2a20726570726573656e74696e672074686520617373657420746f2077686963682074686973204e465420726570726573656e74732e20436f6e7369646572206d616b696e6720616e7920696d616765732061742061207769647468206265747765656e2033323020616e64203130383020706978656c7320616e642061737065637420726174696f206265747765656e20312e39313a3120616e6420343a3520696e636c75736976652e227d7d7da264697066735822122043cf706b35db955e968b15fcce379bf6b681deaa55ac905e8ba2ce4bda48501764736f6c63430008130033",
    "sourcePath": "/Users/amaku/Desktop/nftHODLR/src/implementation.sol",
    "compiler": {
        "name": "solc",
        "version": "0.8.19+commit.7dd6d404"
    },
    "functionHashes": {
        "ERC6551AccountImplementation()": "2cecaac7",
        "ERC6551Registry()": "adbcef11",
        "collectionInfo()": "fdd173b4",
        "collectionUri()": "defcd4b3",
        "metadataFormat()": "a463a67a",
        "owner()": "8da5cb5b",
        "ownerOf(uint256)": "6352211e",
        "renounceOwnership()": "715018a6",
        "safeMint()": "6871ee40",
        "showTokenAccount(uint256)": "f8e4833b",
        "soulToTokens(address)": "35bdd867",
        "tokenInfo()": "6addb663",
        "tokenToAddresses(uint256)": "f45782cd",
        "tokenUri(uint256)": "1675f455",
        "transferOwnership(address)": "f2fde38b"
    },
    "gasEstimates": {
        "creation": {
            "codeDepositCost": "709200",
            "executionCost": "infinite",
            "totalCost": "infinite"
        },
        "external": {
            "ERC6551AccountImplementation()": "2383",
            "ERC6551Registry()": "2404",
            "collectionInfo()": "infinite",
            "collectionUri()": "infinite",
            "metadataFormat()": "infinite",
            "owner()": "2354",
            "ownerOf(uint256)": "2617",
            "renounceOwnership()": "infinite",
            "safeMint()": "infinite",
            "showTokenAccount(uint256)": "infinite",
            "soulToTokens(address)": "2581",
            "tokenInfo()": "infinite",
            "tokenToAddresses(uint256)": "2521",
            "tokenUri(uint256)": "infinite",
            "transferOwnership(address)": "infinite"
        },
        "internal": {
            "_getSoul(uint256)": "infinite",
            "_mint(uint256)": "48418",
            "tokenAccountCreation(uint256,address)": "infinite"
        }
    }
}