{
    "contractName": "SoulAccount",
    "abi": [
        {
            "inputs": [
                {
                    "internalType": "uint256",
                    "name": "_size",
                    "type": "uint256"
                },
                {
                    "internalType": "uint256",
                    "name": "_start",
                    "type": "uint256"
                },
                {
                    "internalType": "uint256",
                    "name": "_end",
                    "type": "uint256"
                }
            ],
            "name": "InvalidCodeAtRange",
            "type": "error"
        },
        {
            "anonymous": false,
            "inputs": [
                {
                    "indexed": true,
                    "internalType": "address",
                    "name": "target",
                    "type": "address"
                },
                {
                    "indexed": true,
                    "internalType": "uint256",
                    "name": "value",
                    "type": "uint256"
                },
                {
                    "indexed": false,
                    "internalType": "bytes",
                    "name": "data",
                    "type": "bytes"
                }
            ],
            "name": "TransactionExecuted",
            "type": "event"
        },
        {
            "inputs": [
                {
                    "internalType": "address",
                    "name": "to",
                    "type": "address"
                },
                {
                    "internalType": "uint256",
                    "name": "value",
                    "type": "uint256"
                },
                {
                    "internalType": "bytes",
                    "name": "data",
                    "type": "bytes"
                }
            ],
            "name": "executeCall",
            "outputs": [
                {
                    "internalType": "bytes",
                    "name": "result",
                    "type": "bytes"
                }
            ],
            "stateMutability": "payable",
            "type": "function"
        },
        {
            "inputs": [
                {
                    "internalType": "bytes32",
                    "name": "hash",
                    "type": "bytes32"
                },
                {
                    "internalType": "bytes",
                    "name": "signature",
                    "type": "bytes"
                }
            ],
            "name": "isValidSignature",
            "outputs": [
                {
                    "internalType": "bytes4",
                    "name": "magicValue",
                    "type": "bytes4"
                }
            ],
            "stateMutability": "view",
            "type": "function"
        },
        {
            "inputs": [],
            "name": "nonce",
            "outputs": [
                {
                    "internalType": "uint256",
                    "name": "",
                    "type": "uint256"
                }
            ],
            "stateMutability": "view",
            "type": "function"
        },
        {
            "inputs": [],
            "name": "owner",
            "outputs": [
                {
                    "internalType": "address",
                    "name": "",
                    "type": "address"
                }
            ],
            "stateMutability": "view",
            "type": "function"
        },
        {
            "inputs": [
                {
                    "internalType": "bytes4",
                    "name": "interfaceId",
                    "type": "bytes4"
                }
            ],
            "name": "supportsInterface",
            "outputs": [
                {
                    "internalType": "bool",
                    "name": "",
                    "type": "bool"
                }
            ],
            "stateMutability": "pure",
            "type": "function"
        },
        {
            "inputs": [],
            "name": "token",
            "outputs": [
                {
                    "internalType": "uint256",
                    "name": "",
                    "type": "uint256"
                },
                {
                    "internalType": "address",
                    "name": "",
                    "type": "address"
                },
                {
                    "internalType": "uint256",
                    "name": "",
                    "type": "uint256"
                }
            ],
            "stateMutability": "view",
            "type": "function"
        },
        {
            "stateMutability": "payable",
            "type": "receive"
        }
    ],
    "bytecode": "608060405234801561001057600080fd5b50610b12806100206000396000f3fe6080604052600436106100595760003560e01c806301ffc9a7146100655780631626ba7e1461009a5780638da5cb5b146100d35780639e5d4c4914610100578063affed0e014610120578063fc0c546a1461014457600080fd5b3661006057005b600080fd5b34801561007157600080fd5b50610085610080366004610789565b61017c565b60405190151581526020015b60405180910390f35b3480156100a657600080fd5b506100ba6100b53660046107c9565b6101b3565b6040516001600160e01b03199091168152602001610091565b3480156100df57600080fd5b506100e86101ea565b6040516001600160a01b039091168152602001610091565b61011361010e36600461089c565b610311565b6040516100919190610975565b34801561012c57600080fd5b5061013660005481565b604051908152602001610091565b34801561015057600080fd5b50610159610440565b604080519384526001600160a01b03909216602084015290820152606001610091565b60006001600160e01b031982166301ffc9a760e01b14806101ad57506001600160e01b03198216630801407360e31b145b92915050565b6000806101c86101c16101ea565b858561047c565b905080156101e05750630b135d3f60e11b90506101ad565b5060009392505050565b600080600080306001600160a01b031663fc0c546a6040518163ffffffff1660e01b8152600401606060405180830381865afa15801561022e573d6000803e3d6000fd5b505050506040513d601f19601f820116820180604052508101906102529190610988565b92509250925046831461029c5760405162461bcd60e51b815260206004820152600d60248201526c15dc9bdb99c818da185a5b9251609a1b60448201526064015b60405180910390fd5b6040516331a9108f60e11b8152600481018290526000906001600160a01b03841690636352211e906024016040805180830381865afa1580156102e3573d6000803e3d6000fd5b505050506040513d601f19601f8201168201806040525081019061030791906109c1565b5095945050505050565b606061031b6101ea565b6001600160a01b0316336001600160a01b03161461036d5760405162461bcd60e51b815260206004820152600f60248201526e2737ba103a37b5b2b71037bbb732b960891b6044820152606401610293565b600080815461037b90610a05565b9190508190555083856001600160a01b03167f47d99ad340f52da66535aff7e10da1ceb85a32bcbd9fa1c42314d194545e14d285856040516103be929190610a1e565b60405180910390a36000856001600160a01b03168585856040516103e3929190610a4d565b60006040518083038185875af1925050503d8060008114610420576040519150601f19603f3d011682016040523d82523d6000602084013e610425565b606091505b50925090508061043757815160208301fd5b50949350505050565b6000808030803b9061045d90610457606084610a5d565b836104df565b8060200190518101906104709190610988565b93509350935050909192565b600080600061048b8585610594565b909250905060008160048111156104a4576104a4610a70565b1480156104c25750856001600160a01b0316826001600160a01b0316145b806104d357506104d38686866105d9565b925050505b9392505050565b6060833b60008190036105025750506040805160208101909152600081526104d8565b808411156105205750506040805160208101909152600081526104d8565b838310156105525760405163162544fd60e11b8152600481018290526024810185905260448101849052606401610293565b83830384820360008282106105675782610569565b815b60408051603f8301601f19168101909152818152955090508087602087018a3c505050509392505050565b60008082516041036105ca5760208301516040840151606085015160001a6105be878285856106c5565b945094505050506105d2565b506000905060025b9250929050565b6000806000856001600160a01b0316631626ba7e60e01b8686604051602401610603929190610a86565b60408051601f198184030181529181526020820180516001600160e01b03166001600160e01b03199094169390931790925290516106419190610aa7565b600060405180830381855afa9150503d806000811461067c576040519150601f19603f3d011682016040523d82523d6000602084013e610681565b606091505b509150915081801561069557506020815110155b80156104d357508051630b135d3f60e11b906106ba9083016020908101908401610ac3565b149695505050505050565b6000807f7fffffffffffffffffffffffffffffff5d576e7357a4501ddfe92f46681b20a08311156106fc5750600090506003610780565b6040805160008082526020820180845289905260ff881692820192909252606081018690526080810185905260019060a0016020604051602081039080840390855afa158015610750573d6000803e3d6000fd5b5050604051601f1901519150506001600160a01b03811661077957600060019250925050610780565b9150600090505b94509492505050565b60006020828403121561079b57600080fd5b81356001600160e01b0319811681146104d857600080fd5b634e487b7160e01b600052604160045260246000fd5b600080604083850312156107dc57600080fd5b82359150602083013567ffffffffffffffff808211156107fb57600080fd5b818501915085601f83011261080f57600080fd5b813581811115610821576108216107b3565b604051601f8201601f19908116603f01168101908382118183101715610849576108496107b3565b8160405282815288602084870101111561086257600080fd5b8260208601602083013760006020848301015280955050505050509250929050565b6001600160a01b038116811461089957600080fd5b50565b600080600080606085870312156108b257600080fd5b84356108bd81610884565b935060208501359250604085013567ffffffffffffffff808211156108e157600080fd5b818701915087601f8301126108f557600080fd5b81358181111561090457600080fd5b88602082850101111561091657600080fd5b95989497505060200194505050565b60005b83811015610940578181015183820152602001610928565b50506000910152565b60008151808452610961816020860160208601610925565b601f01601f19169290920160200192915050565b6020815260006104d86020830184610949565b60008060006060848603121561099d57600080fd5b8351925060208401516109af81610884565b80925050604084015190509250925092565b600080604083850312156109d457600080fd5b82516109df81610884565b6020939093015192949293505050565b634e487b7160e01b600052601160045260246000fd5b600060018201610a1757610a176109ef565b5060010190565b60208152816020820152818360408301376000818301604090810191909152601f909201601f19160101919050565b8183823760009101908152919050565b818103818111156101ad576101ad6109ef565b634e487b7160e01b600052602160045260246000fd5b828152604060208201526000610a9f6040830184610949565b949350505050565b60008251610ab9818460208701610925565b9190910192915050565b600060208284031215610ad557600080fd5b505191905056fea264697066735822122091a23a132a9d1b783496abe40862e8ccf3ede87a2d0e1b6302091da89af7494d64736f6c63430008130033",
    "sourcePath": "/Users/amaku/Desktop/nftHODLR/src/accountAbstraction.sol",
    "compiler": {
        "name": "solc",
        "version": "0.8.19+commit.7dd6d404"
    },
    "functionHashes": {
        "executeCall(address,uint256,bytes)": "9e5d4c49",
        "isValidSignature(bytes32,bytes)": "1626ba7e",
        "nonce()": "affed0e0",
        "owner()": "8da5cb5b",
        "supportsInterface(bytes4)": "01ffc9a7",
        "token()": "fc0c546a"
    },
    "gasEstimates": {
        "creation": {
            "codeDepositCost": "566800",
            "executionCost": "600",
            "totalCost": "567400"
        },
        "external": {
            "executeCall(address,uint256,bytes)": "infinite",
            "isValidSignature(bytes32,bytes)": "infinite",
            "nonce()": "2361",
            "owner()": "infinite",
            "supportsInterface(bytes4)": "404",
            "token()": "infinite"
        }
    }
}